{
  "_format": "hh-sol-artifact-1",
  "contractName": "OwnBurnable",
  "sourceName": "contracts/Ownership.sol",
  "abi": [
    {
      "inputs": [],
      "stateMutability": "nonpayable",
      "type": "constructor"
    },
    {
      "inputs": [
        {
          "internalType": "address",
          "name": "spender",
          "type": "address"
        },
        {
          "internalType": "uint256",
          "name": "allowance",
          "type": "uint256"
        },
        {
          "internalType": "uint256",
          "name": "needed",
          "type": "uint256"
        }
      ],
      "name": "ERC20InsufficientAllowance",
      "type": "error"
    },
    {
      "inputs": [
        {
          "internalType": "address",
          "name": "sender",
          "type": "address"
        },
        {
          "internalType": "uint256",
          "name": "balance",
          "type": "uint256"
        },
        {
          "internalType": "uint256",
          "name": "needed",
          "type": "uint256"
        }
      ],
      "name": "ERC20InsufficientBalance",
      "type": "error"
    },
    {
      "inputs": [
        {
          "internalType": "address",
          "name": "approver",
          "type": "address"
        }
      ],
      "name": "ERC20InvalidApprover",
      "type": "error"
    },
    {
      "inputs": [
        {
          "internalType": "address",
          "name": "receiver",
          "type": "address"
        }
      ],
      "name": "ERC20InvalidReceiver",
      "type": "error"
    },
    {
      "inputs": [
        {
          "internalType": "address",
          "name": "sender",
          "type": "address"
        }
      ],
      "name": "ERC20InvalidSender",
      "type": "error"
    },
    {
      "inputs": [
        {
          "internalType": "address",
          "name": "spender",
          "type": "address"
        }
      ],
      "name": "ERC20InvalidSpender",
      "type": "error"
    },
    {
      "anonymous": false,
      "inputs": [
        {
          "indexed": true,
          "internalType": "address",
          "name": "owner",
          "type": "address"
        },
        {
          "indexed": true,
          "internalType": "address",
          "name": "spender",
          "type": "address"
        },
        {
          "indexed": false,
          "internalType": "uint256",
          "name": "value",
          "type": "uint256"
        }
      ],
      "name": "Approval",
      "type": "event"
    },
    {
      "anonymous": false,
      "inputs": [
        {
          "indexed": true,
          "internalType": "address",
          "name": "from",
          "type": "address"
        },
        {
          "indexed": true,
          "internalType": "address",
          "name": "to",
          "type": "address"
        },
        {
          "indexed": false,
          "internalType": "uint256",
          "name": "value",
          "type": "uint256"
        }
      ],
      "name": "Transfer",
      "type": "event"
    },
    {
      "inputs": [
        {
          "internalType": "address",
          "name": "owner",
          "type": "address"
        },
        {
          "internalType": "address",
          "name": "spender",
          "type": "address"
        }
      ],
      "name": "allowance",
      "outputs": [
        {
          "internalType": "uint256",
          "name": "",
          "type": "uint256"
        }
      ],
      "stateMutability": "view",
      "type": "function"
    },
    {
      "inputs": [
        {
          "internalType": "address",
          "name": "spender",
          "type": "address"
        },
        {
          "internalType": "uint256",
          "name": "value",
          "type": "uint256"
        }
      ],
      "name": "approve",
      "outputs": [
        {
          "internalType": "bool",
          "name": "",
          "type": "bool"
        }
      ],
      "stateMutability": "nonpayable",
      "type": "function"
    },
    {
      "inputs": [
        {
          "internalType": "address",
          "name": "account",
          "type": "address"
        }
      ],
      "name": "balanceOf",
      "outputs": [
        {
          "internalType": "uint256",
          "name": "",
          "type": "uint256"
        }
      ],
      "stateMutability": "view",
      "type": "function"
    },
    {
      "inputs": [
        {
          "internalType": "uint256",
          "name": "amount",
          "type": "uint256"
        }
      ],
      "name": "burn",
      "outputs": [],
      "stateMutability": "nonpayable",
      "type": "function"
    },
    {
      "inputs": [
        {
          "internalType": "address",
          "name": "account",
          "type": "address"
        },
        {
          "internalType": "uint256",
          "name": "value",
          "type": "uint256"
        }
      ],
      "name": "burnFrom",
      "outputs": [],
      "stateMutability": "nonpayable",
      "type": "function"
    },
    {
      "inputs": [],
      "name": "decimals",
      "outputs": [
        {
          "internalType": "uint8",
          "name": "",
          "type": "uint8"
        }
      ],
      "stateMutability": "view",
      "type": "function"
    },
    {
      "inputs": [],
      "name": "deposit",
      "outputs": [],
      "stateMutability": "payable",
      "type": "function"
    },
    {
      "inputs": [
        {
          "internalType": "address",
          "name": "",
          "type": "address"
        }
      ],
      "name": "deposits",
      "outputs": [
        {
          "internalType": "uint256",
          "name": "",
          "type": "uint256"
        }
      ],
      "stateMutability": "view",
      "type": "function"
    },
    {
      "inputs": [],
      "name": "getParticipants",
      "outputs": [
        {
          "internalType": "address[]",
          "name": "",
          "type": "address[]"
        }
      ],
      "stateMutability": "view",
      "type": "function"
    },
    {
      "inputs": [
        {
          "internalType": "address",
          "name": "",
          "type": "address"
        }
      ],
      "name": "isParticipant",
      "outputs": [
        {
          "internalType": "bool",
          "name": "",
          "type": "bool"
        }
      ],
      "stateMutability": "view",
      "type": "function"
    },
    {
      "inputs": [],
      "name": "name",
      "outputs": [
        {
          "internalType": "string",
          "name": "",
          "type": "string"
        }
      ],
      "stateMutability": "view",
      "type": "function"
    },
    {
      "inputs": [
        {
          "internalType": "address",
          "name": "",
          "type": "address"
        }
      ],
      "name": "ownership",
      "outputs": [
        {
          "internalType": "uint256",
          "name": "",
          "type": "uint256"
        }
      ],
      "stateMutability": "view",
      "type": "function"
    },
    {
      "inputs": [
        {
          "internalType": "uint256",
          "name": "",
          "type": "uint256"
        }
      ],
      "name": "participants",
      "outputs": [
        {
          "internalType": "address",
          "name": "",
          "type": "address"
        }
      ],
      "stateMutability": "view",
      "type": "function"
    },
    {
      "inputs": [],
      "name": "symbol",
      "outputs": [
        {
          "internalType": "string",
          "name": "",
          "type": "string"
        }
      ],
      "stateMutability": "view",
      "type": "function"
    },
    {
      "inputs": [],
      "name": "totalDeposit",
      "outputs": [
        {
          "internalType": "uint256",
          "name": "",
          "type": "uint256"
        }
      ],
      "stateMutability": "view",
      "type": "function"
    },
    {
      "inputs": [],
      "name": "totalSupply",
      "outputs": [
        {
          "internalType": "uint256",
          "name": "",
          "type": "uint256"
        }
      ],
      "stateMutability": "view",
      "type": "function"
    },
    {
      "inputs": [
        {
          "internalType": "address",
          "name": "to",
          "type": "address"
        },
        {
          "internalType": "uint256",
          "name": "value",
          "type": "uint256"
        }
      ],
      "name": "transfer",
      "outputs": [
        {
          "internalType": "bool",
          "name": "",
          "type": "bool"
        }
      ],
      "stateMutability": "nonpayable",
      "type": "function"
    },
    {
      "inputs": [
        {
          "internalType": "address",
          "name": "from",
          "type": "address"
        },
        {
          "internalType": "address",
          "name": "to",
          "type": "address"
        },
        {
          "internalType": "uint256",
          "name": "value",
          "type": "uint256"
        }
      ],
      "name": "transferFrom",
      "outputs": [
        {
          "internalType": "bool",
          "name": "",
          "type": "bool"
        }
      ],
      "stateMutability": "nonpayable",
      "type": "function"
    }
  ],
  "bytecode": "0x608060405260056006553480156200001657600080fd5b506040518060400160405280600f81526020017f4f776e65727368697020546f6b656e00000000000000000000000000000000008152506040518060400160405280600381526020017f4f574e0000000000000000000000000000000000000000000000000000000000815250816003908162000094919062000329565b508060049081620000a6919062000329565b50505062000410565b600081519050919050565b7f4e487b7100000000000000000000000000000000000000000000000000000000600052604160045260246000fd5b7f4e487b7100000000000000000000000000000000000000000000000000000000600052602260045260246000fd5b600060028204905060018216806200013157607f821691505b602082108103620001475762000146620000e9565b5b50919050565b60008190508160005260206000209050919050565b60006020601f8301049050919050565b600082821b905092915050565b600060088302620001b17fffffffffffffffffffffffffffffffffffffffffffffffffffffffffffffffff8262000172565b620001bd868362000172565b95508019841693508086168417925050509392505050565b6000819050919050565b6000819050919050565b60006200020a62000204620001fe84620001d5565b620001df565b620001d5565b9050919050565b6000819050919050565b6200022683620001e9565b6200023e620002358262000211565b8484546200017f565b825550505050565b600090565b6200025562000246565b620002628184846200021b565b505050565b5b818110156200028a576200027e6000826200024b565b60018101905062000268565b5050565b601f821115620002d957620002a3816200014d565b620002ae8462000162565b81016020851015620002be578190505b620002d6620002cd8562000162565b83018262000267565b50505b505050565b600082821c905092915050565b6000620002fe60001984600802620002de565b1980831691505092915050565b6000620003198383620002eb565b9150826002028217905092915050565b6200033482620000af565b67ffffffffffffffff81111562000350576200034f620000ba565b5b6200035c825462000118565b620003698282856200028e565b600060209050601f831160018114620003a157600084156200038c578287015190505b6200039885826200030b565b86555062000408565b601f198416620003b1866200014d565b60005b82811015620003db57848901518255600182019150602085019450602081019050620003b4565b86831015620003fb5784890151620003f7601f891682620002eb565b8355505b6001600288020188555050505b505050505050565b611a6f80620004206000396000f3fe6080604052600436106101095760003560e01c806370a0823111610095578063a9059cbb11610064578063a9059cbb146103a5578063d0e30db0146103e2578063dd62ed3e146103ec578063f6153ccd14610429578063fc7e286d1461045457610109565b806370a08231146102d757806379cc679014610314578063929066f51461033d57806395d89b411461037a57610109565b806327d6d6e0116100dc57806327d6d6e0146101de578063313ce5671461021b57806335c1d3491461024657806342966c68146102835780635aa68ac0146102ac57610109565b806306fdde031461010e578063095ea7b31461013957806318160ddd1461017657806323b872dd146101a1575b600080fd5b34801561011a57600080fd5b50610123610491565b60405161013091906113d9565b60405180910390f35b34801561014557600080fd5b50610160600480360381019061015b9190611494565b610523565b60405161016d91906114ef565b60405180910390f35b34801561018257600080fd5b5061018b610546565b6040516101989190611519565b60405180910390f35b3480156101ad57600080fd5b506101c860048036038101906101c39190611534565b610550565b6040516101d591906114ef565b60405180910390f35b3480156101ea57600080fd5b5061020560048036038101906102009190611587565b61057f565b6040516102129190611519565b60405180910390f35b34801561022757600080fd5b50610230610597565b60405161023d91906115d0565b60405180910390f35b34801561025257600080fd5b5061026d600480360381019061026891906115eb565b6105a0565b60405161027a9190611627565b60405180910390f35b34801561028f57600080fd5b506102aa60048036038101906102a591906115eb565b6105df565b005b3480156102b857600080fd5b506102c1610751565b6040516102ce9190611700565b60405180910390f35b3480156102e357600080fd5b506102fe60048036038101906102f99190611587565b6107df565b60405161030b9190611519565b60405180910390f35b34801561032057600080fd5b5061033b60048036038101906103369190611494565b610827565b005b34801561034957600080fd5b50610364600480360381019061035f9190611587565b610847565b60405161037191906114ef565b60405180910390f35b34801561038657600080fd5b5061038f610867565b60405161039c91906113d9565b60405180910390f35b3480156103b157600080fd5b506103cc60048036038101906103c79190611494565b6108f9565b6040516103d991906114ef565b60405180910390f35b6103ea61091c565b005b3480156103f857600080fd5b50610413600480360381019061040e9190611722565b610b02565b6040516104209190611519565b60405180910390f35b34801561043557600080fd5b5061043e610b89565b60405161044b9190611519565b60405180910390f35b34801561046057600080fd5b5061047b60048036038101906104769190611587565b610b8f565b6040516104889190611519565b60405180910390f35b6060600380546104a090611791565b80601f01602080910402602001604051908101604052809291908181526020018280546104cc90611791565b80156105195780601f106104ee57610100808354040283529160200191610519565b820191906000526020600020905b8154815290600101906020018083116104fc57829003601f168201915b5050505050905090565b60008061052e610ba7565b905061053b818585610baf565b600191505092915050565b6000600254905090565b60008061055b610ba7565b9050610568858285610bc1565b610573858585610c55565b60019150509392505050565b60086020528060005260406000206000915090505481565b60006012905090565b600981815481106105b057600080fd5b906000526020600020016000915054906101000a900473ffffffffffffffffffffffffffffffffffffffff1681565b806105e9336107df565b101561062a576040517f08c379a00000000000000000000000000000000000000000000000000000000081526004016106219061180e565b60405180910390fd5b6106343382610d49565b600060065482610644919061185d565b905080471015610689576040517f08c379a00000000000000000000000000000000000000000000000000000000081526004016106809061180e565b60405180910390fd5b600081905080600760003373ffffffffffffffffffffffffffffffffffffffff1673ffffffffffffffffffffffffffffffffffffffff16815260200190815260200160002060008282546106dd919061189f565b9250508190555080600560008282546106f6919061189f565b925050819055503373ffffffffffffffffffffffffffffffffffffffff166108fc829081150290604051600060405180830381858888f19350505050158015610743573d6000803e3d6000fd5b5061074c610dcb565b505050565b606060098054806020026020016040519081016040528092919081815260200182805480156107d557602002820191906000526020600020905b8160009054906101000a900473ffffffffffffffffffffffffffffffffffffffff1673ffffffffffffffffffffffffffffffffffffffff168152602001906001019080831161078b575b5050505050905090565b60008060008373ffffffffffffffffffffffffffffffffffffffff1673ffffffffffffffffffffffffffffffffffffffff168152602001908152602001600020549050919050565b61083982610833610ba7565b83610bc1565b6108438282610d49565b5050565b600a6020528060005260406000206000915054906101000a900460ff1681565b60606004805461087690611791565b80601f01602080910402602001604051908101604052809291908181526020018280546108a290611791565b80156108ef5780601f106108c4576101008083540402835291602001916108ef565b820191906000526020600020905b8154815290600101906020018083116108d257829003601f168201915b5050505050905090565b600080610904610ba7565b9050610911818585610c55565b600191505092915050565b6000341161095f576040517f08c379a00000000000000000000000000000000000000000000000000000000081526004016109569061191f565b60405180910390fd5b600a60003373ffffffffffffffffffffffffffffffffffffffff1673ffffffffffffffffffffffffffffffffffffffff16815260200190815260200160002060009054906101000a900460ff16610a6c576009339080600181540180825580915050600190039060005260206000200160009091909190916101000a81548173ffffffffffffffffffffffffffffffffffffffff021916908373ffffffffffffffffffffffffffffffffffffffff1602179055506001600a60003373ffffffffffffffffffffffffffffffffffffffff1673ffffffffffffffffffffffffffffffffffffffff16815260200190815260200160002060006101000a81548160ff0219169083151502179055505b34600760003373ffffffffffffffffffffffffffffffffffffffff1673ffffffffffffffffffffffffffffffffffffffff1681526020019081526020016000206000828254610abb919061193f565b925050819055503460056000828254610ad4919061193f565b92505081905550610ae3610dcb565b600060065434610af391906119a2565b9050610aff3382610ecb565b50565b6000600160008473ffffffffffffffffffffffffffffffffffffffff1673ffffffffffffffffffffffffffffffffffffffff16815260200190815260200160002060008373ffffffffffffffffffffffffffffffffffffffff1673ffffffffffffffffffffffffffffffffffffffff16815260200190815260200160002054905092915050565b60055481565b60076020528060005260406000206000915090505481565b600033905090565b610bbc8383836001610f4d565b505050565b6000610bcd8484610b02565b90507fffffffffffffffffffffffffffffffffffffffffffffffffffffffffffffffff8114610c4f5781811015610c3f578281836040517ffb8f41b2000000000000000000000000000000000000000000000000000000008152600401610c36939291906119d3565b60405180910390fd5b610c4e84848484036000610f4d565b5b50505050565b600073ffffffffffffffffffffffffffffffffffffffff168373ffffffffffffffffffffffffffffffffffffffff1603610cc75760006040517f96c6fd1e000000000000000000000000000000000000000000000000000000008152600401610cbe9190611627565b60405180910390fd5b600073ffffffffffffffffffffffffffffffffffffffff168273ffffffffffffffffffffffffffffffffffffffff1603610d395760006040517fec442f05000000000000000000000000000000000000000000000000000000008152600401610d309190611627565b60405180910390fd5b610d44838383611124565b505050565b600073ffffffffffffffffffffffffffffffffffffffff168273ffffffffffffffffffffffffffffffffffffffff1603610dbb5760006040517f96c6fd1e000000000000000000000000000000000000000000000000000000008152600401610db29190611627565b60405180910390fd5b610dc782600083611124565b5050565b60005b600980549050811015610ec857600060098281548110610df157610df0611a0a565b5b9060005260206000200160009054906101000a900473ffffffffffffffffffffffffffffffffffffffff1690506005546064600760008473ffffffffffffffffffffffffffffffffffffffff1673ffffffffffffffffffffffffffffffffffffffff16815260200190815260200160002054610e6d919061185d565b610e7791906119a2565b600860008373ffffffffffffffffffffffffffffffffffffffff1673ffffffffffffffffffffffffffffffffffffffff16815260200190815260200160002081905550508080600101915050610dce565b50565b600073ffffffffffffffffffffffffffffffffffffffff168273ffffffffffffffffffffffffffffffffffffffff1603610f3d5760006040517fec442f05000000000000000000000000000000000000000000000000000000008152600401610f349190611627565b60405180910390fd5b610f4960008383611124565b5050565b600073ffffffffffffffffffffffffffffffffffffffff168473ffffffffffffffffffffffffffffffffffffffff1603610fbf5760006040517fe602df05000000000000000000000000000000000000000000000000000000008152600401610fb69190611627565b60405180910390fd5b600073ffffffffffffffffffffffffffffffffffffffff168373ffffffffffffffffffffffffffffffffffffffff16036110315760006040517f94280d620000000000000000000000000000000000000000000000000000000081526004016110289190611627565b60405180910390fd5b81600160008673ffffffffffffffffffffffffffffffffffffffff1673ffffffffffffffffffffffffffffffffffffffff16815260200190815260200160002060008573ffffffffffffffffffffffffffffffffffffffff1673ffffffffffffffffffffffffffffffffffffffff16815260200190815260200160002081905550801561111e578273ffffffffffffffffffffffffffffffffffffffff168473ffffffffffffffffffffffffffffffffffffffff167f8c5be1e5ebec7d5bd14f71427d1e84f3dd0314c0f7b2291e5b200ac8c7c3b925846040516111159190611519565b60405180910390a35b50505050565b600073ffffffffffffffffffffffffffffffffffffffff168373ffffffffffffffffffffffffffffffffffffffff160361117657806002600082825461116a919061193f565b92505081905550611249565b60008060008573ffffffffffffffffffffffffffffffffffffffff1673ffffffffffffffffffffffffffffffffffffffff16815260200190815260200160002054905081811015611202578381836040517fe450d38c0000000000000000000000000000000000000000000000000000000081526004016111f9939291906119d3565b60405180910390fd5b8181036000808673ffffffffffffffffffffffffffffffffffffffff1673ffffffffffffffffffffffffffffffffffffffff16815260200190815260200160002081905550505b600073ffffffffffffffffffffffffffffffffffffffff168273ffffffffffffffffffffffffffffffffffffffff160361129257806002600082825403925050819055506112df565b806000808473ffffffffffffffffffffffffffffffffffffffff1673ffffffffffffffffffffffffffffffffffffffff168152602001908152602001600020600082825401925050819055505b8173ffffffffffffffffffffffffffffffffffffffff168373ffffffffffffffffffffffffffffffffffffffff167fddf252ad1be2c89b69c2b068fc378daa952ba7f163c4a11628f55a4df523b3ef8360405161133c9190611519565b60405180910390a3505050565b600081519050919050565b600082825260208201905092915050565b60005b83811015611383578082015181840152602081019050611368565b60008484015250505050565b6000601f19601f8301169050919050565b60006113ab82611349565b6113b58185611354565b93506113c5818560208601611365565b6113ce8161138f565b840191505092915050565b600060208201905081810360008301526113f381846113a0565b905092915050565b600080fd5b600073ffffffffffffffffffffffffffffffffffffffff82169050919050565b600061142b82611400565b9050919050565b61143b81611420565b811461144657600080fd5b50565b60008135905061145881611432565b92915050565b6000819050919050565b6114718161145e565b811461147c57600080fd5b50565b60008135905061148e81611468565b92915050565b600080604083850312156114ab576114aa6113fb565b5b60006114b985828601611449565b92505060206114ca8582860161147f565b9150509250929050565b60008115159050919050565b6114e9816114d4565b82525050565b600060208201905061150460008301846114e0565b92915050565b6115138161145e565b82525050565b600060208201905061152e600083018461150a565b92915050565b60008060006060848603121561154d5761154c6113fb565b5b600061155b86828701611449565b935050602061156c86828701611449565b925050604061157d8682870161147f565b9150509250925092565b60006020828403121561159d5761159c6113fb565b5b60006115ab84828501611449565b91505092915050565b600060ff82169050919050565b6115ca816115b4565b82525050565b60006020820190506115e560008301846115c1565b92915050565b600060208284031215611601576116006113fb565b5b600061160f8482850161147f565b91505092915050565b61162181611420565b82525050565b600060208201905061163c6000830184611618565b92915050565b600081519050919050565b600082825260208201905092915050565b6000819050602082019050919050565b61167781611420565b82525050565b6000611689838361166e565b60208301905092915050565b6000602082019050919050565b60006116ad82611642565b6116b7818561164d565b93506116c28361165e565b8060005b838110156116f35781516116da888261167d565b97506116e583611695565b9250506001810190506116c6565b5085935050505092915050565b6000602082019050818103600083015261171a81846116a2565b905092915050565b60008060408385031215611739576117386113fb565b5b600061174785828601611449565b925050602061175885828601611449565b9150509250929050565b7f4e487b7100000000000000000000000000000000000000000000000000000000600052602260045260246000fd5b600060028204905060018216806117a957607f821691505b6020821081036117bc576117bb611762565b5b50919050565b7f4e6f7420456e6f756768204f574e20746f6b656e7320746f206275726e000000600082015250565b60006117f8601d83611354565b9150611803826117c2565b602082019050919050565b60006020820190508181036000830152611827816117eb565b9050919050565b7f4e487b7100000000000000000000000000000000000000000000000000000000600052601160045260246000fd5b60006118688261145e565b91506118738361145e565b92508282026118818161145e565b915082820484148315176118985761189761182e565b5b5092915050565b60006118aa8261145e565b91506118b58361145e565b92508282039050818111156118cd576118cc61182e565b5b92915050565b7f596f75206861766520746f20696e7665737420736f6d65204554480000000000600082015250565b6000611909601b83611354565b9150611914826118d3565b602082019050919050565b60006020820190508181036000830152611938816118fc565b9050919050565b600061194a8261145e565b91506119558361145e565b925082820190508082111561196d5761196c61182e565b5b92915050565b7f4e487b7100000000000000000000000000000000000000000000000000000000600052601260045260246000fd5b60006119ad8261145e565b91506119b88361145e565b9250826119c8576119c7611973565b5b828204905092915050565b60006060820190506119e86000830186611618565b6119f5602083018561150a565b611a02604083018461150a565b949350505050565b7f4e487b7100000000000000000000000000000000000000000000000000000000600052603260045260246000fdfea264697066735822122066374dbb0bc3f2536eed37443aa413f5038d6a45fe457eca920b11d81d7d3a9e64736f6c63430008180033",
  "linkReferences": {},
  "deployedLinkReferences": {}
}