{
  "_format": "hh-sol-artifact-1",
  "contractName": "OwnershipToken",
  "sourceName": "contracts/Ownership.sol",
  "abi": [
    {
      "inputs": [],
      "stateMutability": "nonpayable",
      "type": "constructor"
    },
    {
      "inputs": [
        {
          "internalType": "address",
          "name": "spender",
          "type": "address"
        },
        {
          "internalType": "uint256",
          "name": "allowance",
          "type": "uint256"
        },
        {
          "internalType": "uint256",
          "name": "needed",
          "type": "uint256"
        }
      ],
      "name": "ERC20InsufficientAllowance",
      "type": "error"
    },
    {
      "inputs": [
        {
          "internalType": "address",
          "name": "sender",
          "type": "address"
        },
        {
          "internalType": "uint256",
          "name": "balance",
          "type": "uint256"
        },
        {
          "internalType": "uint256",
          "name": "needed",
          "type": "uint256"
        }
      ],
      "name": "ERC20InsufficientBalance",
      "type": "error"
    },
    {
      "inputs": [
        {
          "internalType": "address",
          "name": "approver",
          "type": "address"
        }
      ],
      "name": "ERC20InvalidApprover",
      "type": "error"
    },
    {
      "inputs": [
        {
          "internalType": "address",
          "name": "receiver",
          "type": "address"
        }
      ],
      "name": "ERC20InvalidReceiver",
      "type": "error"
    },
    {
      "inputs": [
        {
          "internalType": "address",
          "name": "sender",
          "type": "address"
        }
      ],
      "name": "ERC20InvalidSender",
      "type": "error"
    },
    {
      "inputs": [
        {
          "internalType": "address",
          "name": "spender",
          "type": "address"
        }
      ],
      "name": "ERC20InvalidSpender",
      "type": "error"
    },
    {
      "anonymous": false,
      "inputs": [
        {
          "indexed": true,
          "internalType": "address",
          "name": "owner",
          "type": "address"
        },
        {
          "indexed": true,
          "internalType": "address",
          "name": "spender",
          "type": "address"
        },
        {
          "indexed": false,
          "internalType": "uint256",
          "name": "value",
          "type": "uint256"
        }
      ],
      "name": "Approval",
      "type": "event"
    },
    {
      "anonymous": false,
      "inputs": [
        {
          "indexed": true,
          "internalType": "address",
          "name": "from",
          "type": "address"
        },
        {
          "indexed": true,
          "internalType": "address",
          "name": "to",
          "type": "address"
        },
        {
          "indexed": false,
          "internalType": "uint256",
          "name": "value",
          "type": "uint256"
        }
      ],
      "name": "Transfer",
      "type": "event"
    },
    {
      "inputs": [
        {
          "internalType": "address",
          "name": "owner",
          "type": "address"
        },
        {
          "internalType": "address",
          "name": "spender",
          "type": "address"
        }
      ],
      "name": "allowance",
      "outputs": [
        {
          "internalType": "uint256",
          "name": "",
          "type": "uint256"
        }
      ],
      "stateMutability": "view",
      "type": "function"
    },
    {
      "inputs": [
        {
          "internalType": "address",
          "name": "spender",
          "type": "address"
        },
        {
          "internalType": "uint256",
          "name": "value",
          "type": "uint256"
        }
      ],
      "name": "approve",
      "outputs": [
        {
          "internalType": "bool",
          "name": "",
          "type": "bool"
        }
      ],
      "stateMutability": "nonpayable",
      "type": "function"
    },
    {
      "inputs": [
        {
          "internalType": "address",
          "name": "account",
          "type": "address"
        }
      ],
      "name": "balanceOf",
      "outputs": [
        {
          "internalType": "uint256",
          "name": "",
          "type": "uint256"
        }
      ],
      "stateMutability": "view",
      "type": "function"
    },
    {
      "inputs": [],
      "name": "decimals",
      "outputs": [
        {
          "internalType": "uint8",
          "name": "",
          "type": "uint8"
        }
      ],
      "stateMutability": "view",
      "type": "function"
    },
    {
      "inputs": [],
      "name": "deposit",
      "outputs": [],
      "stateMutability": "payable",
      "type": "function"
    },
    {
      "inputs": [
        {
          "internalType": "address",
          "name": "",
          "type": "address"
        }
      ],
      "name": "deposits",
      "outputs": [
        {
          "internalType": "uint256",
          "name": "",
          "type": "uint256"
        }
      ],
      "stateMutability": "view",
      "type": "function"
    },
    {
      "inputs": [],
      "name": "name",
      "outputs": [
        {
          "internalType": "string",
          "name": "",
          "type": "string"
        }
      ],
      "stateMutability": "view",
      "type": "function"
    },
    {
      "inputs": [
        {
          "internalType": "address",
          "name": "",
          "type": "address"
        }
      ],
      "name": "owwnerShip",
      "outputs": [
        {
          "internalType": "uint256",
          "name": "",
          "type": "uint256"
        }
      ],
      "stateMutability": "view",
      "type": "function"
    },
    {
      "inputs": [],
      "name": "symbol",
      "outputs": [
        {
          "internalType": "string",
          "name": "",
          "type": "string"
        }
      ],
      "stateMutability": "view",
      "type": "function"
    },
    {
      "inputs": [],
      "name": "totalDeposit",
      "outputs": [
        {
          "internalType": "uint256",
          "name": "",
          "type": "uint256"
        }
      ],
      "stateMutability": "view",
      "type": "function"
    },
    {
      "inputs": [],
      "name": "totalSupply",
      "outputs": [
        {
          "internalType": "uint256",
          "name": "",
          "type": "uint256"
        }
      ],
      "stateMutability": "view",
      "type": "function"
    },
    {
      "inputs": [
        {
          "internalType": "address",
          "name": "to",
          "type": "address"
        },
        {
          "internalType": "uint256",
          "name": "value",
          "type": "uint256"
        }
      ],
      "name": "transfer",
      "outputs": [
        {
          "internalType": "bool",
          "name": "",
          "type": "bool"
        }
      ],
      "stateMutability": "nonpayable",
      "type": "function"
    },
    {
      "inputs": [
        {
          "internalType": "address",
          "name": "from",
          "type": "address"
        },
        {
          "internalType": "address",
          "name": "to",
          "type": "address"
        },
        {
          "internalType": "uint256",
          "name": "value",
          "type": "uint256"
        }
      ],
      "name": "transferFrom",
      "outputs": [
        {
          "internalType": "bool",
          "name": "",
          "type": "bool"
        }
      ],
      "stateMutability": "nonpayable",
      "type": "function"
    }
  ],
  "bytecode": "0x60806040523480156200001157600080fd5b506040518060400160405280600f81526020017f4f776e65727368697020546f6b656e00000000000000000000000000000000008152506040518060400160405280600381526020017f4f574e000000000000000000000000000000000000000000000000000000000081525081600390816200008f919062000324565b508060049081620000a1919062000324565b5050506200040b565b600081519050919050565b7f4e487b7100000000000000000000000000000000000000000000000000000000600052604160045260246000fd5b7f4e487b7100000000000000000000000000000000000000000000000000000000600052602260045260246000fd5b600060028204905060018216806200012c57607f821691505b602082108103620001425762000141620000e4565b5b50919050565b60008190508160005260206000209050919050565b60006020601f8301049050919050565b600082821b905092915050565b600060088302620001ac7fffffffffffffffffffffffffffffffffffffffffffffffffffffffffffffffff826200016d565b620001b886836200016d565b95508019841693508086168417925050509392505050565b6000819050919050565b6000819050919050565b600062000205620001ff620001f984620001d0565b620001da565b620001d0565b9050919050565b6000819050919050565b6200022183620001e4565b6200023962000230826200020c565b8484546200017a565b825550505050565b600090565b6200025062000241565b6200025d81848462000216565b505050565b5b8181101562000285576200027960008262000246565b60018101905062000263565b5050565b601f821115620002d4576200029e8162000148565b620002a9846200015d565b81016020851015620002b9578190505b620002d1620002c8856200015d565b83018262000262565b50505b505050565b600082821c905092915050565b6000620002f960001984600802620002d9565b1980831691505092915050565b6000620003148383620002e6565b9150826002028217905092915050565b6200032f82620000aa565b67ffffffffffffffff8111156200034b576200034a620000b5565b5b62000357825462000113565b6200036482828562000289565b600060209050601f8311600181146200039c576000841562000387578287015190505b62000393858262000306565b86555062000403565b601f198416620003ac8662000148565b60005b82811015620003d657848901518255600182019150602085019450602081019050620003af565b86831015620003f65784890151620003f2601f891682620002e6565b8355505b6001600288020188555050505b505050505050565b6112d4806200041b6000396000f3fe6080604052600436106100c25760003560e01c806370a082311161007f578063d0e30db011610059578063d0e30db0146102a4578063dd62ed3e146102ae578063f6153ccd146102eb578063fc7e286d14610316576100c2565b806370a08231146101ff57806395d89b411461023c578063a9059cbb14610267576100c2565b806306fdde03146100c7578063095ea7b3146100f257806318160ddd1461012f57806323b872dd1461015a578063313ce567146101975780634c4beb54146101c2575b600080fd5b3480156100d357600080fd5b506100dc610353565b6040516100e99190610e1a565b60405180910390f35b3480156100fe57600080fd5b5061011960048036038101906101149190610ed5565b6103e5565b6040516101269190610f30565b60405180910390f35b34801561013b57600080fd5b50610144610408565b6040516101519190610f5a565b60405180910390f35b34801561016657600080fd5b50610181600480360381019061017c9190610f75565b610412565b60405161018e9190610f30565b60405180910390f35b3480156101a357600080fd5b506101ac610441565b6040516101b99190610fe4565b60405180910390f35b3480156101ce57600080fd5b506101e960048036038101906101e49190610fff565b61044a565b6040516101f69190610f5a565b60405180910390f35b34801561020b57600080fd5b5061022660048036038101906102219190610fff565b610462565b6040516102339190610f5a565b60405180910390f35b34801561024857600080fd5b506102516104aa565b60405161025e9190610e1a565b60405180910390f35b34801561027357600080fd5b5061028e60048036038101906102899190610ed5565b61053c565b60405161029b9190610f30565b60405180910390f35b6102ac61055f565b005b3480156102ba57600080fd5b506102d560048036038101906102d0919061102c565b610626565b6040516102e29190610f5a565b60405180910390f35b3480156102f757600080fd5b506103006106ad565b60405161030d9190610f5a565b60405180910390f35b34801561032257600080fd5b5061033d60048036038101906103389190610fff565b6106b3565b60405161034a9190610f5a565b60405180910390f35b6060600380546103629061109b565b80601f016020809104026020016040519081016040528092919081815260200182805461038e9061109b565b80156103db5780601f106103b0576101008083540402835291602001916103db565b820191906000526020600020905b8154815290600101906020018083116103be57829003601f168201915b5050505050905090565b6000806103f06106cb565b90506103fd8185856106d3565b600191505092915050565b6000600254905090565b60008061041d6106cb565b905061042a8582856106e5565b610435858585610779565b60019150509392505050565b60006012905090565b60076020528060005260406000206000915090505481565b60008060008373ffffffffffffffffffffffffffffffffffffffff1673ffffffffffffffffffffffffffffffffffffffff168152602001908152602001600020549050919050565b6060600480546104b99061109b565b80601f01602080910402602001604051908101604052809291908181526020018280546104e59061109b565b80156105325780601f1061050757610100808354040283529160200191610532565b820191906000526020600020905b81548152906001019060200180831161051557829003601f168201915b5050505050905090565b6000806105476106cb565b9050610554818585610779565b600191505092915050565b600034116105a2576040517f08c379a000000000000000000000000000000000000000000000000000000000815260040161059990611118565b60405180910390fd5b34600660003373ffffffffffffffffffffffffffffffffffffffff1673ffffffffffffffffffffffffffffffffffffffff16815260200190815260200160002060008282546105f19190611167565b92505081905550346005600082825461060a9190611167565b9250508190555061061a3361086d565b610624333461090c565b565b6000600160008473ffffffffffffffffffffffffffffffffffffffff1673ffffffffffffffffffffffffffffffffffffffff16815260200190815260200160002060008373ffffffffffffffffffffffffffffffffffffffff1673ffffffffffffffffffffffffffffffffffffffff16815260200190815260200160002054905092915050565b60055481565b60066020528060005260406000206000915090505481565b600033905090565b6106e0838383600161098e565b505050565b60006106f18484610626565b90507fffffffffffffffffffffffffffffffffffffffffffffffffffffffffffffffff81146107735781811015610763578281836040517ffb8f41b200000000000000000000000000000000000000000000000000000000815260040161075a939291906111aa565b60405180910390fd5b6107728484848403600061098e565b5b50505050565b600073ffffffffffffffffffffffffffffffffffffffff168373ffffffffffffffffffffffffffffffffffffffff16036107eb5760006040517f96c6fd1e0000000000000000000000000000000000000000000000000000000081526004016107e291906111e1565b60405180910390fd5b600073ffffffffffffffffffffffffffffffffffffffff168273ffffffffffffffffffffffffffffffffffffffff160361085d5760006040517fec442f0500000000000000000000000000000000000000000000000000000000815260040161085491906111e1565b60405180910390fd5b610868838383610b65565b505050565b6005546064600660008473ffffffffffffffffffffffffffffffffffffffff1673ffffffffffffffffffffffffffffffffffffffff168152602001908152602001600020546108bc91906111fc565b6108c6919061126d565b600760008373ffffffffffffffffffffffffffffffffffffffff1673ffffffffffffffffffffffffffffffffffffffff1681526020019081526020016000208190555050565b600073ffffffffffffffffffffffffffffffffffffffff168273ffffffffffffffffffffffffffffffffffffffff160361097e5760006040517fec442f0500000000000000000000000000000000000000000000000000000000815260040161097591906111e1565b60405180910390fd5b61098a60008383610b65565b5050565b600073ffffffffffffffffffffffffffffffffffffffff168473ffffffffffffffffffffffffffffffffffffffff1603610a005760006040517fe602df050000000000000000000000000000000000000000000000000000000081526004016109f791906111e1565b60405180910390fd5b600073ffffffffffffffffffffffffffffffffffffffff168373ffffffffffffffffffffffffffffffffffffffff1603610a725760006040517f94280d62000000000000000000000000000000000000000000000000000000008152600401610a6991906111e1565b60405180910390fd5b81600160008673ffffffffffffffffffffffffffffffffffffffff1673ffffffffffffffffffffffffffffffffffffffff16815260200190815260200160002060008573ffffffffffffffffffffffffffffffffffffffff1673ffffffffffffffffffffffffffffffffffffffff168152602001908152602001600020819055508015610b5f578273ffffffffffffffffffffffffffffffffffffffff168473ffffffffffffffffffffffffffffffffffffffff167f8c5be1e5ebec7d5bd14f71427d1e84f3dd0314c0f7b2291e5b200ac8c7c3b92584604051610b569190610f5a565b60405180910390a35b50505050565b600073ffffffffffffffffffffffffffffffffffffffff168373ffffffffffffffffffffffffffffffffffffffff1603610bb7578060026000828254610bab9190611167565b92505081905550610c8a565b60008060008573ffffffffffffffffffffffffffffffffffffffff1673ffffffffffffffffffffffffffffffffffffffff16815260200190815260200160002054905081811015610c43578381836040517fe450d38c000000000000000000000000000000000000000000000000000000008152600401610c3a939291906111aa565b60405180910390fd5b8181036000808673ffffffffffffffffffffffffffffffffffffffff1673ffffffffffffffffffffffffffffffffffffffff16815260200190815260200160002081905550505b600073ffffffffffffffffffffffffffffffffffffffff168273ffffffffffffffffffffffffffffffffffffffff1603610cd35780600260008282540392505081905550610d20565b806000808473ffffffffffffffffffffffffffffffffffffffff1673ffffffffffffffffffffffffffffffffffffffff168152602001908152602001600020600082825401925050819055505b8173ffffffffffffffffffffffffffffffffffffffff168373ffffffffffffffffffffffffffffffffffffffff167fddf252ad1be2c89b69c2b068fc378daa952ba7f163c4a11628f55a4df523b3ef83604051610d7d9190610f5a565b60405180910390a3505050565b600081519050919050565b600082825260208201905092915050565b60005b83811015610dc4578082015181840152602081019050610da9565b60008484015250505050565b6000601f19601f8301169050919050565b6000610dec82610d8a565b610df68185610d95565b9350610e06818560208601610da6565b610e0f81610dd0565b840191505092915050565b60006020820190508181036000830152610e348184610de1565b905092915050565b600080fd5b600073ffffffffffffffffffffffffffffffffffffffff82169050919050565b6000610e6c82610e41565b9050919050565b610e7c81610e61565b8114610e8757600080fd5b50565b600081359050610e9981610e73565b92915050565b6000819050919050565b610eb281610e9f565b8114610ebd57600080fd5b50565b600081359050610ecf81610ea9565b92915050565b60008060408385031215610eec57610eeb610e3c565b5b6000610efa85828601610e8a565b9250506020610f0b85828601610ec0565b9150509250929050565b60008115159050919050565b610f2a81610f15565b82525050565b6000602082019050610f456000830184610f21565b92915050565b610f5481610e9f565b82525050565b6000602082019050610f6f6000830184610f4b565b92915050565b600080600060608486031215610f8e57610f8d610e3c565b5b6000610f9c86828701610e8a565b9350506020610fad86828701610e8a565b9250506040610fbe86828701610ec0565b9150509250925092565b600060ff82169050919050565b610fde81610fc8565b82525050565b6000602082019050610ff96000830184610fd5565b92915050565b60006020828403121561101557611014610e3c565b5b600061102384828501610e8a565b91505092915050565b6000806040838503121561104357611042610e3c565b5b600061105185828601610e8a565b925050602061106285828601610e8a565b9150509250929050565b7f4e487b7100000000000000000000000000000000000000000000000000000000600052602260045260246000fd5b600060028204905060018216806110b357607f821691505b6020821081036110c6576110c561106c565b5b50919050565b7f596f75206861766520746f20696e7665737420736f6d65204554480000000000600082015250565b6000611102601b83610d95565b915061110d826110cc565b602082019050919050565b60006020820190508181036000830152611131816110f5565b9050919050565b7f4e487b7100000000000000000000000000000000000000000000000000000000600052601160045260246000fd5b600061117282610e9f565b915061117d83610e9f565b925082820190508082111561119557611194611138565b5b92915050565b6111a481610e61565b82525050565b60006060820190506111bf600083018661119b565b6111cc6020830185610f4b565b6111d96040830184610f4b565b949350505050565b60006020820190506111f6600083018461119b565b92915050565b600061120782610e9f565b915061121283610e9f565b925082820261122081610e9f565b9150828204841483151761123757611236611138565b5b5092915050565b7f4e487b7100000000000000000000000000000000000000000000000000000000600052601260045260246000fd5b600061127882610e9f565b915061128383610e9f565b9250826112935761129261123e565b5b82820490509291505056fea26469706673582212203bfd2ad6a90095c05ea9e274d15bfcc05efd42d922f1c6683dc726176381889f64736f6c63430008180033",
  "linkReferences": {},
  "deployedLinkReferences": {}
}